:0300000002061BDA
:0C061B00787FE4F6D8FD75812902028D7D
:03066A006D5600CA
:10028D00E4F508F5091205F81205E11205C6750A1F
:10029D0000750B01AF0BE50B2440FDE4350AFC1294
:1002AD0005437F057E001204D1050BE50B70020599
:1002BD000AC3941BE50A940040DA12000EAC06AD99
:1002CD0007E41201317BDD7ADC799C78411200263E
:1002DD0012016A8E0C8F0DD3E5099419E50894006F
:1002ED00400FAE08AF097C007D1A12022A8C088DD2
:1002FD0009751204AB0DAA0C7D017F0112051F7B40
:10030D00FF7A06796A7D057F011205677F647E009D
:0D031D001204D10509E50970A10508809DB5
:03000B0002065199
:09065100758CFF758A38B2B332D2
:030023000203BF16
:1003BF00C0E0C0F0C083C082C0D075D000C000C004
:1003CF0001C002C003C004C005C006C007309807B3
:1003DF00AF99120003C298D007D006D005D004D031
:1003EF0003D002D001D000D0D0D082D083D0F0D0B3
:0203FF00E032EA
:06060C00C2A58F80D2A7F9
:080612007F027EEFDEFEDFFC3B
:01061A0022BD
:0A063300C2A612060CC2A7020612AE
:10058A00CFCDCFCECCCE12022A7C007D0A12022A0F
:04059A00ED2430FF1D
:0A059E00D2A612060CC2A702061234
:1005A800AE07EEFB7A0064017004ED148009EB6479
:0E05B800024A7009ED243F4480FF12063322F0
:1005F8007F381206337F0C1206337F061206337FCC
:0406080001020633B2
:0A063D00AC031205A8AF0402059EED
:060567008B0E8A0F8910C3
:10056D001205A8E4FDAB0EAA0FA9108D82758300AC
:0C057D001201EBFF600612059E0D80E9E4
:01058900224F
:0A047000EF24FFFDEE34FFFC7F0ACD
:08047A008E138F148C158D16F2
:100482007F017E00E4FBEBC39516E5156480F874EA
:0E0492008098500AAC13AD141202180B80E8CB
:0104A0002239
:04051F008A108B11A2
:100523001205A8AA12EAFF7E00D394007480948077
:0F053300400D120470AC10AD1112058A1A80E64B
:010542002296
:040375008B828A836A
:100379001205A8C3E58364809480400D7F2B120584
:100389009E85831C85821D80107F2D12059EC3E4E6
:100399009582F51DE49583F51CAA1BEAFF7E00D31F
:1003A900940074809480400D120470AC1CAD1D1231
:0503B900058A1A80E630
:0103BE00221C
:04032A008A208B2179
:10032E001205A8AA22EAD39400748094804037EA7A
:10033E0024FFFDE434FFFC7F107E0012047AAC2013
:10034E00AD21CFCDCFCECCCE12022AEF540FFEC3AD
:10035E00940A74809480EE5004243080022437FF77
:06036E0012059E1A80BF7B
:010374002266
:040401008A258B2697
:100405001205A8AA27EAFF7E00D394007480948081
:100415004026EF24FFFDEE34FFFC7F0212047AAC88
:1004250025AD26CFCDCFCECCCE12022AEF54012456
:0804350030FF12059E1A80CD74
:01043D00229C
:1004D100E4FDFCC3ED9FEE6480F8EC648098501657
:1004E100E4FBFA000BBB00010ABA03F7BBE8F40D09
:0604F100BD00010C80DDDE
:0104F70022E2
:1005C60075985043878053890F438920758BF3753F
:0B05D6008DF3D2AFD2ACC2ABD28E22AC
:080003008F993099FDC299228A
:1005E1005389F0438901C28DD28C758CFF758A388D
:0705F100D2A9D2AFC2B9226A
:09065A00D2A0D2A1C2A0C2A122CB
:07066300C2A0D2A1D2A02227
:02043E00AD0708
:10044000E4FBEBC394087480948050237E00748096
:10045000A803088006CEA2E713CE13D8F8FFEDF567
:0F04600082EF558224FF92A0D2A1C2A10B80D3BC
:01046F00226A
:1004F800E4FFD2A0FEEEC39408748094805017D213
:10050800A130A00DA8067480088002C313D8FC424D
:0605180007C2A10E80DF06
:01051E0022BA
:0A064700EF24FF92A0D2A1C2A1226D
:0B062700E4D2A0D2A1A2A033FFC2A128
:0106320022A5
:100543008F0E8C0F8D1012065A7FA012043E1206D6
:1005530027AF0E12043E120627AF1012043E1206F6
:040563002702066302
:0204A1008F28A2
:1004A30012065A7FA012043E120627AF2812043EFA
:1004B30012062712065A7FA112043E1206271204BF
:0D04C300F88F297F01120647120663AF294A
:0104D0002209
:10000E00E4FFFEC2B5D2B5C2B530B6FDD2B2AF90E6
:04001E007E00C2B2EC
:0100220022BB
:10002600EC4D6011E8497017ED33EC3304600DE4D4
:10003600FCFFFEFD22E933E8330470F80201D61214
:1000460001A158046009E4CC248150062850090215
:1000560001E02840030201DDC0E0EB4A7044B980AC
:1000660006D0E0FB0201CCEF4E701CBD8008EBFF12
:10007600EAFEE9FD80EBE98DF0A4FEE5F002010F52
:10008600E9CDF9EAFEEBFFEF89F0A4FCE5F0CE89B5
:10009600F0A42EFFE435F0CD89F0A42DFEE435F072
:1000A6008067EF4E7005BD80D780C3EF8BF0A4ACA0
:1000B600F0EE8BF0A42CFCE435F0F8EF8AF0A42CDB
:1000C600E5F038FCE433CB8DF0A42CFCE5F03BF8EE
:1000D600EE8AF0A42CFCE5F038F8E433CF89F0A4DE
:1000E6002CFCE5F038CF3400CE89F0A42FFFE5F0E4
:1000F6003EFEE433C98DF0A42EFEE5F039CD8AF03C
:10010600A42FFFE5F03EFEE43DFD33D0E0FB5007B3
:100116000BBB000F0201E0EC2CFCEF33FFEE33FECD
:06012600ED33FD0201B8FB
:10012C0075F020800E75F010800575F0087D007E4E
:10013C00007F003392D530D50312027FEC33401090
:10014C00EF33FFEE33FEED33FDEC33FCD5F0ED2257
:0E015C00E5F0247EA2D513CC92E7CDCEFF2293
:10016A00EDD2E7CD33EC3392D524814006E4FFFE8D
:10017A00FDFC22FCE4CFCECDCC24E0501174FF80EC
:10018A00EDC3CC13CCCD13CDCE13CECF13CF047089
:07019A00F030D5DE02027F08
:1001A100E9D2E7C933E833F892D5EDD2E7CD33ECA4
:0701B10033FC5002B2D5221D
:1001B800EC30E7100FBF000C0EBE00080DBD0004A8
:1001C8000BEB6014A2D5EB13FCED92E7FD2274FF54
:1001D800FCFDFEFF22E480F8A2D574FF13FC7D80AD
:0301E800E480EFC1
:1001EB00BB010CE58229F582E5833AF583E02250C9
:1001FB0006E92582F8E622BBFE06E92582F8E22213
:0D020B00E58229F582E5833AF583E493222C
:10021800EF8DF0A4A8F0CF8CF0A428CE8DF0A42EFA
:02022800FE22B4
:10022A00BC000BBE0029EF8DF084FFADF022E4CCB8
:10023A00F875F008EF2FFFEE33FEEC33FCEE9DEC81
:10024A00984005FCEE9DFE0FD5F0E9E4CEFD22EDC7
:10025A00F8F5F0EE8420D21CFEADF075F008EF2F11
:10026A00FFED33FD4007985006D5F0F222C398FD02
:05027A000FD5F0EA229F
:0E027F00C3E49FFFE49EFEE49DFDE49CFC2290
:00000001FF
